{
  "_format": "hh-sol-artifact-1",
  "contractName": "SimpleVoting",
  "sourceName": "contracts/SimpleVoting.sol",
  "abi": [
    {
      "inputs": [
        {
          "internalType": "uint256",
          "name": "_numChoices",
          "type": "uint256"
        },
        {
          "internalType": "address",
          "name": "semaphoreAddress",
          "type": "address"
        },
        {
          "internalType": "bytes32",
          "name": "_secretCodeHash",
          "type": "bytes32"
        }
      ],
      "stateMutability": "nonpayable",
      "type": "constructor"
    },
    {
      "inputs": [
        {
          "internalType": "uint256",
          "name": "value",
          "type": "uint256"
        },
        {
          "internalType": "uint256",
          "name": "length",
          "type": "uint256"
        }
      ],
      "name": "StringsInsufficientHexLength",
      "type": "error"
    },
    {
      "anonymous": false,
      "inputs": [
        {
          "indexed": false,
          "internalType": "string",
          "name": "title",
          "type": "string"
        },
        {
          "indexed": false,
          "internalType": "string",
          "name": "message",
          "type": "string"
        }
      ],
      "name": "Log",
      "type": "event"
    },
    {
      "anonymous": false,
      "inputs": [
        {
          "indexed": true,
          "internalType": "address",
          "name": "voter",
          "type": "address"
        },
        {
          "indexed": false,
          "internalType": "uint256",
          "name": "choice",
          "type": "uint256"
        },
        {
          "indexed": false,
          "internalType": "int8",
          "name": "quantity",
          "type": "int8"
        }
      ],
      "name": "Voted",
      "type": "event"
    },
    {
      "inputs": [],
      "name": "clearVote",
      "outputs": [],
      "stateMutability": "nonpayable",
      "type": "function"
    },
    {
      "inputs": [],
      "name": "getVotes",
      "outputs": [
        {
          "internalType": "uint256[]",
          "name": "",
          "type": "uint256[]"
        }
      ],
      "stateMutability": "view",
      "type": "function"
    },
    {
      "inputs": [],
      "name": "groupId",
      "outputs": [
        {
          "internalType": "uint256",
          "name": "",
          "type": "uint256"
        }
      ],
      "stateMutability": "view",
      "type": "function"
    },
    {
      "inputs": [
        {
          "internalType": "address",
          "name": "",
          "type": "address"
        }
      ],
      "name": "hasVoted",
      "outputs": [
        {
          "internalType": "bool",
          "name": "",
          "type": "bool"
        }
      ],
      "stateMutability": "view",
      "type": "function"
    },
    {
      "inputs": [
        {
          "internalType": "string",
          "name": "secretCodeInput",
          "type": "string"
        },
        {
          "internalType": "uint256",
          "name": "identityCommitment",
          "type": "uint256"
        }
      ],
      "name": "joinGroup",
      "outputs": [],
      "stateMutability": "nonpayable",
      "type": "function"
    },
    {
      "inputs": [],
      "name": "numChoices",
      "outputs": [
        {
          "internalType": "uint256",
          "name": "",
          "type": "uint256"
        }
      ],
      "stateMutability": "view",
      "type": "function"
    },
    {
      "inputs": [],
      "name": "semaphore",
      "outputs": [
        {
          "internalType": "contract ISemaphore",
          "name": "",
          "type": "address"
        }
      ],
      "stateMutability": "view",
      "type": "function"
    },
    {
      "inputs": [
        {
          "internalType": "uint256",
          "name": "merkleTreeDepth",
          "type": "uint256"
        },
        {
          "internalType": "uint256",
          "name": "merkleTreeRoot",
          "type": "uint256"
        },
        {
          "internalType": "uint256",
          "name": "nullifier",
          "type": "uint256"
        },
        {
          "internalType": "uint256",
          "name": "choice",
          "type": "uint256"
        },
        {
          "internalType": "uint256[8]",
          "name": "points",
          "type": "uint256[8]"
        }
      ],
      "name": "vote",
      "outputs": [],
      "stateMutability": "nonpayable",
      "type": "function"
    },
    {
      "inputs": [
        {
          "internalType": "uint256",
          "name": "",
          "type": "uint256"
        }
      ],
      "name": "voteCounts",
      "outputs": [
        {
          "internalType": "uint256",
          "name": "",
          "type": "uint256"
        }
      ],
      "stateMutability": "view",
      "type": "function"
    },
    {
      "inputs": [
        {
          "internalType": "address",
          "name": "",
          "type": "address"
        }
      ],
      "name": "votes",
      "outputs": [
        {
          "internalType": "uint256",
          "name": "",
          "type": "uint256"
        }
      ],
      "stateMutability": "view",
      "type": "function"
    }
  ],
  "bytecode": "0x60806040523480156200001157600080fd5b5060405162001c1e38038062001c1e833981810160405281019062000037919062000326565b600083116200007d576040517f08c379a0000000000000000000000000000000000000000000000000000000008152600401620000749062000409565b60405180910390fd5b8260038190555060035467ffffffffffffffff811115620000a357620000a26200042b565b5b604051908082528060200260200182016040528015620000d25781602001602082028036833780820191505090505b5060049080519060200190620000ea929190620001d5565b5080600181905550816000806101000a81548173ffffffffffffffffffffffffffffffffffffffff021916908373ffffffffffffffffffffffffffffffffffffffff16021790555060008054906101000a900473ffffffffffffffffffffffffffffffffffffffff1673ffffffffffffffffffffffffffffffffffffffff1663575185ed6040518163ffffffff1660e01b81526004016020604051808303816000875af1158015620001a0573d6000803e3d6000fd5b505050506040513d601f19601f82011682018060405250810190620001c691906200045a565b6002819055505050506200048c565b82805482825590600052602060002090810192821562000214579160200282015b8281111562000213578251825591602001919060010190620001f6565b5b50905062000223919062000227565b5090565b5b808211156200024257600081600090555060010162000228565b5090565b600080fd5b6000819050919050565b62000260816200024b565b81146200026c57600080fd5b50565b600081519050620002808162000255565b92915050565b600073ffffffffffffffffffffffffffffffffffffffff82169050919050565b6000620002b38262000286565b9050919050565b620002c581620002a6565b8114620002d157600080fd5b50565b600081519050620002e581620002ba565b92915050565b6000819050919050565b6200030081620002eb565b81146200030c57600080fd5b50565b6000815190506200032081620002f5565b92915050565b60008060006060848603121562000342576200034162000246565b5b600062000352868287016200026f565b93505060206200036586828701620002d4565b925050604062000378868287016200030f565b9150509250925092565b600082825260208201905092915050565b7f4e756d626572206f662063686f69636573206d7573742062652067726561746560008201527f72207468616e207a65726f000000000000000000000000000000000000000000602082015250565b6000620003f1602b8362000382565b9150620003fe8262000393565b604082019050919050565b600060208201905081810360008301526200042481620003e2565b9050919050565b7f4e487b7100000000000000000000000000000000000000000000000000000000600052604160045260246000fd5b60006020828403121562000473576200047262000246565b5b600062000483848285016200026f565b91505092915050565b611782806200049c6000396000f3fe608060405234801561001057600080fd5b506004361061009e5760003560e01c8063a0f44c9211610066578063a0f44c921461015b578063a9092c1114610179578063ae3b6e4814610197578063d8bff5a5146101b3578063e6fc636a146101e35761009e565b806309eef43e146100a35780630dc96015146100d35780633c3a220d146100f157806376805335146101215780637b5d25341461013d575b600080fd5b6100bd60048036038101906100b89190610d6a565b6101ed565b6040516100ca9190610db2565b60405180910390f35b6100db61020d565b6040516100e89190610e95565b60405180910390f35b61010b60048036038101906101069190610ee3565b610265565b6040516101189190610f1f565b60405180910390f35b61013b60048036038101906101369190610f61565b610289565b005b6101456106fe565b604051610152919061103c565b60405180910390f35b610163610722565b6040516101709190610f1f565b60405180910390f35b610181610728565b60405161018e9190610f1f565b60405180910390f35b6101b160048036038101906101ac91906110b7565b61072e565b005b6101cd60048036038101906101c89190610d6a565b610873565b6040516101da9190610f1f565b60405180910390f35b6101eb61088b565b005b60066020528060005260406000206000915054906101000a900460ff1681565b6060600480548060200260200160405190810160405280929190818152602001828054801561025b57602002820191906000526020600020905b815481526020019060010190808311610247575b5050505050905090565b6004818154811061027557600080fd5b906000526020600020016000915090505481565b60035482106102cd576040517f08c379a00000000000000000000000000000000000000000000000000000000081526004016102c490611174565b60405180910390fd5b60006040518060c001604052808781526020018681526020018581526020018481526020016002548152602001836008806020026040519081016040528092919082600860200280828437600081840152601f19601f820116905080830192505050505050815250905060008054906101000a900473ffffffffffffffffffffffffffffffffffffffff1673ffffffffffffffffffffffffffffffffffffffff1663d0d898dd600254836040518363ffffffff1660e01b8152600401610394929190611294565b600060405180830381600087803b1580156103ae57600080fd5b505af11580156103c2573d6000803e3d6000fd5b50505050600660003373ffffffffffffffffffffffffffffffffffffffff1673ffffffffffffffffffffffffffffffffffffffff16815260200190815260200160002060009054906101000a900460ff1661053f5782600560003373ffffffffffffffffffffffffffffffffffffffff1673ffffffffffffffffffffffffffffffffffffffff16815260200190815260200160002081905550600160048481548110610471576104706112be565b5b90600052602060002001600082825461048a919061131c565b925050819055506001600660003373ffffffffffffffffffffffffffffffffffffffff1673ffffffffffffffffffffffffffffffffffffffff16815260200190815260200160002060006101000a81548160ff0219169083151502179055503373ffffffffffffffffffffffffffffffffffffffff167ff491647f3871bd3baf60bf5918fd157d19540f0374ef53fa58ea822fb95f4907846001604051610532929190611398565b60405180910390a26106f6565b6000600560003373ffffffffffffffffffffffffffffffffffffffff1673ffffffffffffffffffffffffffffffffffffffff168152602001908152602001600020549050600160048281548110610599576105986112be565b5b9060005260206000200160008282546105b291906113c1565b925050819055503373ffffffffffffffffffffffffffffffffffffffff167ff491647f3871bd3baf60bf5918fd157d19540f0374ef53fa58ea822fb95f4907827fffffffffffffffffffffffffffffffffffffffffffffffffffffffffffffffff604051610621929190611430565b60405180910390a283600560003373ffffffffffffffffffffffffffffffffffffffff1673ffffffffffffffffffffffffffffffffffffffff16815260200190815260200160002081905550600160048581548110610683576106826112be565b5b90600052602060002001600082825461069c919061131c565b925050819055503373ffffffffffffffffffffffffffffffffffffffff167ff491647f3871bd3baf60bf5918fd157d19540f0374ef53fa58ea822fb95f49078560016040516106ec929190611398565b60405180910390a2505b505050505050565b60008054906101000a900473ffffffffffffffffffffffffffffffffffffffff1681565b60025481565b60035481565b60008383604051602001610743929190611498565b6040516020818303038152906040528051906020012090507f821f337ab34a905a52ea2a22aa6b9ef872196a034e37c2bc08d88e21d8cece0961078582610a9f565b604051610792919061157c565b60405180910390a160015481146107de576040517f08c379a00000000000000000000000000000000000000000000000000000000081526004016107d5906115fd565b60405180910390fd5b60008054906101000a900473ffffffffffffffffffffffffffffffffffffffff1673ffffffffffffffffffffffffffffffffffffffff16631783efc3600254846040518363ffffffff1660e01b815260040161083b92919061161d565b600060405180830381600087803b15801561085557600080fd5b505af1158015610869573d6000803e3d6000fd5b5050505050505050565b60056020528060005260406000206000915090505481565b600660003373ffffffffffffffffffffffffffffffffffffffff1673ffffffffffffffffffffffffffffffffffffffff16815260200190815260200160002060009054906101000a900460ff16610917576040517f08c379a000000000000000000000000000000000000000000000000000000000815260040161090e90611692565b60405180910390fd5b6000600560003373ffffffffffffffffffffffffffffffffffffffff1673ffffffffffffffffffffffffffffffffffffffff168152602001908152602001600020549050600160048281548110610971576109706112be565b5b90600052602060002001600082825461098a91906113c1565b925050819055503373ffffffffffffffffffffffffffffffffffffffff167ff491647f3871bd3baf60bf5918fd157d19540f0374ef53fa58ea822fb95f4907827fffffffffffffffffffffffffffffffffffffffffffffffffffffffffffffffff6040516109f9929190611430565b60405180910390a26000600660003373ffffffffffffffffffffffffffffffffffffffff1673ffffffffffffffffffffffffffffffffffffffff16815260200190815260200160002060006101000a81548160ff021916908315150217905550600560003373ffffffffffffffffffffffffffffffffffffffff1673ffffffffffffffffffffffffffffffffffffffff1681526020019081526020016000206000905550565b606060008260001c9050610ab4816020610abc565b915050919050565b6060600083905060006002846002610ad491906116b2565b610ade919061131c565b67ffffffffffffffff811115610af757610af66116f4565b5b6040519080825280601f01601f191660200182016040528015610b295781602001600182028036833780820191505090505b5090507f300000000000000000000000000000000000000000000000000000000000000081600081518110610b6157610b606112be565b5b60200101907effffffffffffffffffffffffffffffffffffffffffffffffffffffffffffff1916908160001a9053507f780000000000000000000000000000000000000000000000000000000000000081600181518110610bc557610bc46112be565b5b60200101907effffffffffffffffffffffffffffffffffffffffffffffffffffffffffffff1916908160001a90535060006001856002610c0591906116b2565b610c0f919061131c565b90505b6001811115610caf577f3031323334353637383961626364656600000000000000000000000000000000600f841660108110610c5157610c506112be565b5b1a60f81b828281518110610c6857610c676112be565b5b60200101907effffffffffffffffffffffffffffffffffffffffffffffffffffffffffffff1916908160001a905350600483901c925080610ca890611723565b9050610c12565b5060008214610cf75784846040517fe22e27eb000000000000000000000000000000000000000000000000000000008152600401610cee92919061161d565b60405180910390fd5b809250505092915050565b600080fd5b600080fd5b600073ffffffffffffffffffffffffffffffffffffffff82169050919050565b6000610d3782610d0c565b9050919050565b610d4781610d2c565b8114610d5257600080fd5b50565b600081359050610d6481610d3e565b92915050565b600060208284031215610d8057610d7f610d02565b5b6000610d8e84828501610d55565b91505092915050565b60008115159050919050565b610dac81610d97565b82525050565b6000602082019050610dc76000830184610da3565b92915050565b600081519050919050565b600082825260208201905092915050565b6000819050602082019050919050565b6000819050919050565b610e0c81610df9565b82525050565b6000610e1e8383610e03565b60208301905092915050565b6000602082019050919050565b6000610e4282610dcd565b610e4c8185610dd8565b9350610e5783610de9565b8060005b83811015610e88578151610e6f8882610e12565b9750610e7a83610e2a565b925050600181019050610e5b565b5085935050505092915050565b60006020820190508181036000830152610eaf8184610e37565b905092915050565b610ec081610df9565b8114610ecb57600080fd5b50565b600081359050610edd81610eb7565b92915050565b600060208284031215610ef957610ef8610d02565b5b6000610f0784828501610ece565b91505092915050565b610f1981610df9565b82525050565b6000602082019050610f346000830184610f10565b92915050565b600080fd5b600081905082602060080282011115610f5b57610f5a610f3a565b5b92915050565b60008060008060006101808688031215610f7e57610f7d610d02565b5b6000610f8c88828901610ece565b9550506020610f9d88828901610ece565b9450506040610fae88828901610ece565b9350506060610fbf88828901610ece565b9250506080610fd088828901610f3f565b9150509295509295909350565b6000819050919050565b6000611002610ffd610ff884610d0c565b610fdd565b610d0c565b9050919050565b600061101482610fe7565b9050919050565b600061102682611009565b9050919050565b6110368161101b565b82525050565b6000602082019050611051600083018461102d565b92915050565b600080fd5b600080fd5b60008083601f84011261107757611076611057565b5b8235905067ffffffffffffffff8111156110945761109361105c565b5b6020830191508360018202830111156110b0576110af610f3a565b5b9250929050565b6000806000604084860312156110d0576110cf610d02565b5b600084013567ffffffffffffffff8111156110ee576110ed610d07565b5b6110fa86828701611061565b9350935050602061110d86828701610ece565b9150509250925092565b600082825260208201905092915050565b7f496e76616c69642063686f696365000000000000000000000000000000000000600082015250565b600061115e600e83611117565b915061116982611128565b602082019050919050565b6000602082019050818103600083015261118d81611151565b9050919050565b600060089050919050565b600081905092915050565b6000819050919050565b6000602082019050919050565b6111ca81611194565b6111d4818461119f565b92506111df826111aa565b8060005b838110156112105781516111f78782610e12565b9650611202836111b4565b9250506001810190506111e3565b505050505050565b6101a08201600082015161122f6000850182610e03565b5060208201516112426020850182610e03565b5060408201516112556040850182610e03565b5060608201516112686060850182610e03565b50608082015161127b6080850182610e03565b5060a082015161128e60a08501826111c1565b50505050565b60006101c0820190506112aa6000830185610f10565b6112b76020830184611218565b9392505050565b7f4e487b7100000000000000000000000000000000000000000000000000000000600052603260045260246000fd5b7f4e487b7100000000000000000000000000000000000000000000000000000000600052601160045260246000fd5b600061132782610df9565b915061133283610df9565b925082820190508082111561134a576113496112ed565b5b92915050565b6000819050919050565b60008160000b9050919050565b600061138261137d61137884611350565b610fdd565b61135a565b9050919050565b61139281611367565b82525050565b60006040820190506113ad6000830185610f10565b6113ba6020830184611389565b9392505050565b60006113cc82610df9565b91506113d783610df9565b92508282039050818111156113ef576113ee6112ed565b5b92915050565b6000819050919050565b600061141a611415611410846113f5565b610fdd565b61135a565b9050919050565b61142a816113ff565b82525050565b60006040820190506114456000830185610f10565b6114526020830184611421565b9392505050565b600081905092915050565b82818337600083830152505050565b600061147f8385611459565b935061148c838584611464565b82840190509392505050565b60006114a5828486611473565b91508190509392505050565b7f6a6f696e47726f757020696e7075744861736800000000000000000000000000600082015250565b60006114e7601383611117565b91506114f2826114b1565b602082019050919050565b600081519050919050565b60005b8381101561152657808201518184015260208101905061150b565b60008484015250505050565b6000601f19601f8301169050919050565b600061154e826114fd565b6115588185611117565b9350611568818560208601611508565b61157181611532565b840191505092915050565b60006040820190508181036000830152611595816114da565b905081810360208301526115a98184611543565b905092915050565b7f496e76616c69642073656372657420776f726400000000000000000000000000600082015250565b60006115e7601383611117565b91506115f2826115b1565b602082019050919050565b60006020820190508181036000830152611616816115da565b9050919050565b60006040820190506116326000830185610f10565b61163f6020830184610f10565b9392505050565b7f4e6f20766f746520746f20636c65617200000000000000000000000000000000600082015250565b600061167c601083611117565b915061168782611646565b602082019050919050565b600060208201905081810360008301526116ab8161166f565b9050919050565b60006116bd82610df9565b91506116c883610df9565b92508282026116d681610df9565b915082820484148315176116ed576116ec6112ed565b5b5092915050565b7f4e487b7100000000000000000000000000000000000000000000000000000000600052604160045260246000fd5b600061172e82610df9565b915060008203611741576117406112ed565b5b60018203905091905056fea264697066735822122073f9edac3fd8de84d6b7571f882b1964c011add5d7a3c5f41bcf8a95878c1fa164736f6c63430008170033",
  "linkReferences": {},
  "deployedLinkReferences": {}
}